16:27:58.262811 IP (tos 0x0, ttl 64, id 5119, offset 0, flags [DF], proto UDP (17), length 34)
    192.168.1.4.51260 > 192.168.1.1.5554: UDP, length 6
	0x0000:  4500 0022 13ff 4000 4011 a376 c0a8 0104  E.."..@.@..v....
	0x0010:  c0a8 0101 c83c 15b2 000e b6a5 434f 5543  .....<......COUC
	0x0020:  4f55                                     OU
16:27:58.263474 IP (tos 0x0, ttl 64, id 5120, offset 0, flags [DF], proto UDP (17), length 68)
    192.168.1.4.51260 > 192.168.1.1.5554: UDP, length 40
	0x0000:  4500 0044 1400 4000 4011 a353 c0a8 0104  E..D..@.@..S....
	0x0010:  c0a8 0101 c83c 15b2 0030 66c6 4154 2a43  .....<...0f.AT*C
	0x0020:  4f4e 4649 473d 2267 656e 6572 616c 3a6e  ONFIG="general:n
	0x0030:  6176 6461 7461 5f64 656d 6f22 2c22 5452  avdata_demo","TR
	0x0040:  5545 220d                                UE".

16:29:09.183232 IP (tos 0x0, ttl 64, id 7445, offset 0, flags [DF], proto UDP (17), length 34)
    192.168.1.4.33363 > 192.168.1.1.5554: UDP, length 6
	0x0000:  4500 0022 1d15 4000 4011 9a60 c0a8 0104  E.."..@.@..`....
	0x0010:  c0a8 0101 8253 15b2 000e fc8e 434f 5543  .....S......COUC
	0x0020:  4f55                                     OU
16:29:09.183871 IP (tos 0x0, ttl 64, id 7446, offset 0, flags [DF], proto UDP (17), length 68)
    192.168.1.4.33363 > 192.168.1.1.5554: UDP, length 40
	0x0000:  4500 0044 1d16 4000 4011 9a3d c0a8 0104  E..D..@.@..=....
	0x0010:  c0a8 0101 8253 15b2 0030 acaf 4154 2a43  .....S...0..AT*C
	0x0020:  4f4e 4649 473d 2267 656e 6572 616c 3a6e  ONFIG="general:n
	0x0030:  6176 6461 7461 5f64 656d 6f22 2c22 5452  avdata_demo","TR
	0x0040:  5545 220d                                UE".

