


15:26:43.751666 IP (tos 0x0, ttl 64, id 25301, offset 0, flags [DF], proto UDP (17), length 68)
    192.168.1.4.33410 > 192.168.1.1.5554: UDP, length 40
	0x0000:  4500 0044 62d5 4000 4011 547e c0a8 0104  E..Db.@.@.T~....
	0x0010:  c0a8 0101 8282 15b2 0030 ac80 4154 2a43  .........0..AT*C
	0x0020:  4f4e 4649 473d 2267 656e 6572 616c 3a6e  ONFIG="general:n
	0x0030:  6176 6461 7461 5f64 656d 6f22 2c22 5452  avdata_demo","TR
	0x0040:  5545 220d                                UE".



15:35:28.692896 IP (tos 0x0, ttl 64, id 2203, offset 0, flags [DF], proto UDP (17), length 34)
    192.168.1.4.42403 > 192.168.1.1.5554: UDP, length 6
	0x0000:  4500 0022 089b 4000 4011 aeda c0a8 0104  E.."..@.@.......
	0x0010:  c0a8 0101 a5a3 15b2 000e d93e 434f 5543  ...........>COUC
	0x0020:  4f55                                     OU
15:35:28.693531 IP (tos 0x0, ttl 64, id 2204, offset 0, flags [DF], proto UDP (17), length 68)
    192.168.1.4.42403 > 192.168.1.1.5554: UDP, length 40
	0x0000:  4500 0044 089c 4000 4011 aeb7 c0a8 0104  E..D..@.@.......
	0x0010:  c0a8 0101 a5a3 15b2 0030 895f 4154 2a43  .........0._AT*C
	0x0020:  4f4e 4649 473d 2267 656e 6572 616c 3a6e  ONFIG="general:n
	0x0030:  6176 6461 7461 5f64 656d 6f22 2c22 5452  avdata_demo","TR
	0x0040:  5545 220d                                UE".

15:44:12.255957 IP (tos 0x0, ttl 64, id 3446, offset 0, flags [DF], proto UDP (17), length 34)
    192.168.1.4.52229 > 192.168.1.1.5554: UDP, length 6
	0x0000:  4500 0022 0d76 4000 4011 a9ff c0a8 0104  E..".v@.@.......
	0x0010:  c0a8 0101 cc05 15b2 000e b2dc 434f 5543  ............COUC
	0x0020:  4f55                                     OU
15:44:12.256618 IP (tos 0x0, ttl 64, id 3447, offset 0, flags [DF], proto UDP (17), length 68)
    192.168.1.4.52229 > 192.168.1.1.5554: UDP, length 40
	0x0000:  4500 0044 0d77 4000 4011 a9dc c0a8 0104  E..D.w@.@.......
	0x0010:  c0a8 0101 cc05 15b2 0030 62fd 4154 2a43  .........0b.AT*C
	0x0020:  4f4e 4649 473d 2267 656e 6572 616c 3a6e  ONFIG="general:n
	0x0030:  6176 6461 7461 5f64 656d 6f22 2c22 5452  avdata_demo","TR
	0x0040:  5545 220d                                UE".
15:44:14.390389 IP (tos 0x0, ttl 64, id 3457, offset 0, flags [DF], proto UDP (17), length 34)
    192.168.1.4.52229 > 192.168.1.1.5554: UDP, length 6
	0x0000:  4500 0022 0d81 4000 4011 a9f4 c0a8 0104  E.."..@.@.......
	0x0010:  c0a8 0101 cc05 15b2 000e b2dc 434f 5543  ............COUC
	0x0020:  4f55                                     OU
15:44:14.391044 IP (tos 0x0, ttl 64, id 3458, offset 0, flags [DF], proto UDP (17), length 68)
    192.168.1.4.52229 > 192.168.1.1.5554: UDP, length 40
	0x0000:  4500 0044 0d82 4000 4011 a9d1 c0a8 0104  E..D..@.@.......
	0x0010:  c0a8 0101 cc05 15b2 0030 62fd 4154 2a43  .........0b.AT*C
	0x0020:  4f4e 4649 473d 2267 656e 6572 616c 3a6e  ONFIG="general:n
	0x0030:  6176 6461 7461 5f64 656d 6f22 2c22 5452  avdata_demo","TR
	0x0040:  5545 220d                                UE".

15:46:09.034268 IP (tos 0x0, ttl 64, id 32826, offset 0, flags [DF], proto UDP (17), length 34)
    192.168.1.4.52526 > 192.168.1.1.5554: UDP, length 6
	0x0000:  4500 0022 803a 4000 4011 373b c0a8 0104  E..".:@.@.7;....
	0x0010:  c0a8 0101 cd2e 15b2 000e b1b3 434f 5543  ............COUC
	0x0020:  4f55                                     OU
15:46:09.034917 IP (tos 0x0, ttl 64, id 32827, offset 0, flags [DF], proto UDP (17), length 68)
    192.168.1.4.52526 > 192.168.1.1.5554: UDP, length 40
	0x0000:  4500 0044 803b 4000 4011 3718 c0a8 0104  E..D.;@.@.7.....
	0x0010:  c0a8 0101 cd2e 15b2 0030 61d4 4154 2a43  .........0a.AT*C
	0x0020:  4f4e 4649 473d 2267 656e 6572 616c 3a6e  ONFIG="general:n
	0x0030:  6176 6461 7461 5f64 656d 6f22 2c22 5452  avdata_demo","TR
	0x0040:  5545 220d                                UE".

